:100C340057656C636F6D6520546F2042545373790C
:100C44007374656D214372656174642062792077E1
:100C54006A63207A6B6800302D2D5354415254201E
:100C64005553494E47204254530047003A00480028
:100C7400543A00534543004E424100464942410024
:030EA70001320015
:100FB10012000E7FE87E03120FF7120C84120DA6A9
:080FC1001209561204CA80F85F
:100C8400E53214600804700875340C80037534016F
:100C9400753518C20085342FE4F527753314753A79
:100CA40001752803752A04752C05753B0B752907F6
:100CB400752B08752D09F530F531752E0112100CC0
:090CC400121020120FE1C28C2273
:100956001206FAEFB40B0040030209FA900969F88F
:1009660028287302098A02099402099D0209C10214
:1009760009D40209D60209DC0209E40209E70209E0
:10098600EB0209F1D28CD2007F587E028006C28C1F
:100996007F907E01020F3AC3E52E94047480948002
:1009A6004052E52F704EE53065317048C28C052EF9
:1009B600752F05F527753518C200220532D3E532A5
:1009C6009401748094804003E4F532020C84800222
:1009D60005300530801B74032530F5308013020B7B
:1009E600180531800C05310531800674032531F573
:0509F6003175351822E7
:1009FB0012000E120E048F398E388D378C36E4FFB1
:100A0B00FEFDFCAB39AA38A937A8361201C4501E1B
:100A1B007B2D7D087F02121075AF39AE38AD37AC28
:100A2B003612023D8F398E388D378C3680097B2BF1
:100A3B007D087F02121075AF39AE38AD37AC361268
:100A4B00028CAB07AA06754D027D097F02120CCDF5
:100A5B007B2E7D0B7F02121075E4FFFE7DC87C425E
:100A6B00AB39AA38A937A83612001E12028CE47BC8
:100A7B0064FAF9F812042A754D017D0C7F02020C01
:010A8B00CD9D
:10084400E530FD7C00E4FF120EF37F057E00120FFD
:10085400F7E531FD7C007F01120EF37F057E001267
:100864000FF7E52EFD7C007F02120EF37F057E005C
:10087400120FF7E533FD7C007F03120EF37F057E34
:1008840000120FF7E52FFD7C007F04120EF37F05A5
:100894007E00120FF7E527FD3395E0FC7F05120E6D
:1008A400F37F057E00120FF7E53AFD7C007F061208
:1008B4000EF37F057E00120FF7E528FD7C007F070D
:1008C400120EF37F057E00120FF7E52AFD7C007FF0
:1008D40008120EF37F057E00120FF7E52CFD7C0055
:1008E4007F09120EF37F057E00120FF7E53BFD7CB6
:1008F400007F0A120EF37F057E00120FF7E529FD33
:100904007C007F0B120EF37F057E00120FF7E52BA0
:10091400FD7C007F0C120EF37F057E00120FF7E5BD
:100924002DFD7C007F0D120EF37F057E00120FF764
:10093400E535FD7C007F0E120EF37F057E00120F5D
:10094400F7E532FD7C007F0F120EF37F057E000277
:020954000FF79B
:100B1800E4FF120D768F307F01120D768F317F0240
:100B2800120D768F2E7F03120D768F337F04120DF0
:100B3800768F2F7F05120D768F277F06120D768F01
:100B48003A7F07120D768F287F08120D768F2A7F3D
:100B580009120D768F2C7F0A120D768F3B7F0B12B0
:100B68000D768F297F0C120D768F2B7F0D120D7647
:0E0B78008F2D7F0E120D768F357F0F020D76BA
:0F0D0F0085464C85474D85484EAB43AA44A945C0
:060D1E008B498A4A894B53
:100D240012032FFFAB4CAA4DA94E12032FAB49AAB5
:100D34004AA94B120375AB4CAA4DA94EEF02037599
:100DA6007BFF7A0C79347D017F01120F177BFF7A66
:100DB6000C795B7D017F02120F177F181210617F7D
:0F0DC600F47E01120FF71206FAEF70EE02100C16
:1004CA00E52F75F00A842430F53CE52F75F00A848F
:1004DA00E5F02430F53DE52775F00A12030D2430C6
:1004EA00F53EE52775F00A12030DAFF0EF2430F55B
:1004FA003FE53075F064842430F521E53075F06409
:10050A0084AFF0EF75F00A842430F522EF75F00A13
:10051A0084E5F02430F523E53175F064842430F560
:10052A0024E53175F06484AFF0EF75F00A84243065
:10053A00F525EF75F00A84E5F02430F5267BFF7A7D
:10054A000C796EAD3A7F01120F17AB21AD287F01EE
:10055A00121075AB22AD2A7F01121075AB23AD2C98
:10056A007F011210757BFF7A0C79707D067F01126C
:10057A000F17AB24AD297F01121075AB25AD2B7F68
:10058A0001121075AB26AD2D7F011210757BFF7A13
:10059A000C7972AD3B7F01120F177BFF7A0C7974CD
:1005AA007D067F02120F177BFF7A0C79777D017F18
:1005BA0002120F17E52EFB7A00754D017D047F02AA
:1005CA00120CCDE535FB7A00754D027D0E7F0212C5
:1005DA000CCDE52F75F00A84FD7F04121089E52FF2
:1005EA0075F00A84ADF07F05121089E52775F00AC7
:1005FA0012030DFD7F06121089E52775F00A120312
:10060A000DADF07F071210893001071209FBB20104
:10061A0080F6E53270087BFF7A0C797B800CE53234
:10062A006401700D7BFF7A0C797F7D0D7F01120FBB
:10063A0017D3E535940074809480501130000EC2AF
:10064A008C753518C2007F647E00120F3AAF27EF0F
:10065A003395E0C36480948040030206F9E52F6075
:10066A00030206F4C3E52E940474809480500B05AB
:10067A002E85342F7F967E0080047FBC7E02120F67
:10068A003AE4F527C28C753518C200E52E6403706A
:01069A005E01
:10069B00F54375440075453AF54675470075483B7B
:1006AB00120D0F754300754400754528754600758E
:1006BB004700754829120D0F7543007544007545A9
:1006CB002A75460075470075482B120D0F754300B0
:1006DB0075440075452C75460075470075482D12FD
:0906EB000D0F7F2C7E01020F3A75
:0606F40075273B152F22C3
:05109B00007FF7DFFEFD
:0110A000222D
:040F3A00AD07AC064D
:100F3E00E4FBFAED25E0FFEC33FEC3EB9FEA9E5097
:0D0F4E000CB2A012109B0BBB00010A80E644
:010F5B002273
:0D000E00120F977FCC120ECD7F44020ECD55
:100E0400120F977FCC120ECD7FBE120ECD120E2F75
:100E14008F49120E2FEFFEE549FFFDAC06EC1202DE
:0B0E240053E4FBFA79807841020127BB
:06104600C2A58F80D2A7B5
:08104C007F027EEFDEFEDFFCF7
:011054002279
:0A106100C2A6121046C2A702104CEE
:0A106B00D2A6121046C2A702104CD4
:100F5C00AE07EEFB7A0064017004ED148009EB64BB
:0E0F6C00024A7009ED243F4480FF12106122FA
:10100C007F381210617F0C1210617F061210617F05
:04101C00010210615C
:0A107500AC03120F5CAF0402106B15
:060F17008B498A4A894B58
:100F1D00120F5CE4FDAB49AA4AA94B8D8275830083
:0C0F2D00120348FF600612106B0D80E9F3
:010F39002295
:080E59008E4E8F4F8C508D511D
:100E61007F017E00E4FBEBC39551E5506480F8748B
:0E0E71008098500AAC4EAD4F1203870B80E8FC
:010E7F002250
:040CCD008A4B8B4C77
:100CD100120F5CAA4DEAFF7E00D3940074809480C9
:100CE100402BEF24FFFDEE34FFFC7F0A120E59ACBE
:100CF1004BAD4CCFCDCFCECCCE1203997C007D0A2B
:0D0D0100120399ED2430FF12106B1A80C808
:010D0E0022C2
:1006FA007543FFD2B0D2B1D2B2D2B4D2B5D2B6D249
:10070A00B7C2B220B7147F147E00120FF730B7FDBC
:10071A007F147E00120FF775430B20B6147F147EE8
:10072A0000120FF730B6FD7F147E00120FF77543E3
:10073A000A20B5147F147E00120FF730B5FD7F141E
:10074A007E00120FF775430920B4147F147E00123D
:10075A000FF730B4FD7F147E00120FF7754308D2ED
:10076A00B0D2B1D2B2D2B4D2B5D2B6D2B7C2B12017
:10077A00B7147F147E00120FF730B7FD7F147E0086
:10078A00120FF775430720B6147F147E00120FF775
:10079A0030B6FD7F147E00120FF775430620B5149C
:1007AA007F147E00120FF730B5FD7F147E00120F02
:1007BA00F775430520B4147F147E00120FF730B486
:1007CA00FD7F147E00120FF7754304D2B0D2B1D266
:1007DA00B2D2B4D2B5D2B6D2B7C2B020B7147F144F
:1007EA007E00120FF730B7FD7F147E00120FF775E7
:1007FA00430320B6147F147E00120FF730B6FD7F34
:10080A00147E00120FF775430220B5147F147E0080
:10081A00120FF730B5FD7F147E00120FF7754301F2
:10082A0020B4147F147E00120FF730B4FD7F147EBB
:09083A0000120FF7E4F543AF438F
:010843002292
:100F9700D2A1C2A17FF7DFFED2A17F20DFFEA2A1EF
:090FA700E433FE7FF7DFFEAF0624
:010FB000221E
:10103400C2A17E04DEFEEF24FF92A17E18DEFED262
:01104400A10A
:011045002288
:100FC900C2A17F02DFFED2A17F02DFFEA2A1E4332C
:070FD900FE7F18DFFEAF06EA
:010FE00022EE
:020ECD00AD076F
:100ECF00C2AFE4FCECC39408748094805013A80460
:100EDF007401088002C333D8FC5DFF1210340C80FC
:030EEF00E3D2AF9C
:010EF20022DD
:100E2F00E4FDC2AFFCECC39408748094805016129A
:100E3F000FC9EF600DA8047401088002C333D8FCFA
:090E4F0042050C80E0D2AFAF05B2
:010E58002277
:100EAA0009150A0A0A0A0A0A0A0A0A0C093F065B0B
:0C0EBA004F666D7D077F6F00400108014E
:09108900AE0574152FF8A606222D
:100DD500E4F590EF24FC601B146012146009147094
:100DE50016D2B3D2A48010C2B3D2A4800AD2B3C2A1
:0F0DF500A48004C2B3C2A474092DF8E6F59022BD
:100F7A0074152508F8E6FDAF08120DD50508C3E576
:0C0F8A00089409748094804003750801ED
:010F96002238
:060EC600021E05DCC181E3
:10102000438901758C3C758AB0C28DC28CD2A9D21D
:04103000AFC2B92270
:100FE100438910758DFC758B18C28FC28ED2ABD21E
:060FF100AFD2BBD28E223C
:03000B00020BE203
:100BE200C0E0C0F0C083C082C0D075D000C000C0D9
:100BF20001C002C003C004C005C006C007AF331560
:100C020033EF700D753314152730000215351208B5
:100C120044758C3C758AB0D007D006D005D004D07C
:100C220003D002D001D000D0D0D082D083D0F0D077
:020C3200E032AE
:03001B00020B864F
:100B8600C0E0C0F0C083C082C0D075D000C000C035
:100B960001C002C003C004C005C006C007120F7A18
:100BA600E51F151F7002151ED3E51F9400E51E9460
:100BB600005008751E05751FDCB201758DFC758B1E
:100BC60018D007D006D005D004D003D002D001D06B
:0C0BD60000D0D0D082D083D0F0D0E0322C
:100EF3008F408C418D421210927FA0120D4412102C
:100F030055AF40120D44121055AF42120D4412104A
:040F13005502000380
:020D76008F43A9
:100D78001210927FA0120D44121055AF43120D4469
:100D88001210551210927FA1120D44121055120E16
:0D0D9800808F447F0112107F120003AF44D2
:010DA500222B
:09109200D2A3D2A2C2A3C2A22281
:07000300C2A3D2A2D2A32286
:020D4400AD07F9
:100D4600E4FBEBC394087480948050237E00748087
:100D5600A803088006CEA2E713CE13D8F8FFEDF558
:0F0D660082EF558224FF92A3D2A2C2A20B80D3A8
:010D7500225B
:100E8000E4FFD2A3FEEEC39408748094805017D27E
:100E9000A230A30DA8067480088002C313D8FC42B8
:060EA00007C2A20E80DF74
:010EA6002229
:0A107F00EF24FF92A3D2A2C2A22226
:0B105500D2A3D2A2A2A3E433FFC2A2E8
:01106000226D
:100FF700EF1FAC0670011E4C600A7D027CEFDCFE21
:04100700DDFC80ECA0
:01100B0022C2
:10001E00EC4D6011E8497017ED33EC3304600DE4DC
:10002E00FCFFFEFD22E933E8330470F80202F812F9
:10003E0002C358046009E4CC2481500628500902FA
:10004E0003022840030202FFC0E0EB4A7044B9806D
:10005E0006D0E0FB0202EEEF4E701CBD8008EBFFF7
:10006E00EAFEE9FD80EBE98DF0A4FEE5F002010762
:10007E00E9CDF9EAFEEBFFEF89F0A4FCE5F0CE89BD
:10008E00F0A42EFFE435F0CD89F0A42DFEE435F07A
:10009E008067EF4E7005BD80D780C3EF8BF0A4ACA8
:1000AE00F0EE8BF0A42CFCE435F0F8EF8AF0A42CE3
:1000BE00E5F038FCE433CB8DF0A42CFCE5F03BF8F6
:1000CE00EE8AF0A42CFCE5F038F8E433CF89F0A4E6
:1000DE002CFCE5F038CF3400CE89F0A42FFFE5F0EC
:1000EE003EFEE433C98DF0A42EFEE5F039CD8AF044
:1000FE00A42FFFE5F03EFEE43DFD33D0E0FB5007BC
:10010E000BBB000F020302EC2CFCEF33FFEE33FEB1
:06011E00ED33FD0202DAE0
:10012400020302EC5D046005E8590470030202F85E
:100134001202C3580460F6EC4860F2EC7004FDFE51
:10014400FF22C860DB2481C85009C39860025006AE
:100154000202FF9850CAF582E9294B4A7005AB8226
:100164000202EE75F0007C1A7880C3EF9BEE9AEDE4
:1001740099400DC3EF9BFFEE9AFEED99FDE842F026
:10018400DC23ACF0D0E0FFD0E0FED0E0FDAB822079
:10019400E7101BEB60BAEC2CFCEF33FFEE33FEED03
:1001A40033FD0202DAE803F830E705C0F075F00029
:1001B400EF2FFFEE33FEED33FD40B830E7C280AAE7
:1001C40074F8CC6480CCC86480C8F58204604FC3E2
:1001D400EB9FF5F0EA9E42F0E99D42F0E89C45F081
:1001E400603C501DE5825FFFE582D313CB5BCBF40B
:1001F4002B5582FB50280ABA002409B90020088034
:100204001DE5825BFBE582D313CF5FCFF4C3132FCD
:100214005582FF50090EBE00050DBD00010CC3EB55
:100224009FF5F0EA9E42F0E99D42F0E89C45F060BB
:0902340007CC4820E701B3EC22DD
:10023D00ED33EC33600A047003BD8004ECB2E7FCCF
:01024D00228E
:10024E0075F020800E75F010800575F0087D007E2B
:10025E00007F003392D530D5031204BCEC3340102E
:10026E00EF33FFEE33FEED33FDEC33FCD5F0ED2234
:0E027E00E5F0247EA2D513CC92E7CDCEFF2270
:10028C00EDD2E7CD33EC3392D524814006E4FFFE6A
:10029C00FDFC22FCE4CFCECDCC24E0501174FF80C9
:1002AC00EDC3CC13CCCD13CDCE13CECF13CF047066
:0702BC00F030D5DE0204BCA6
:1002C300E9D2E7C933E833F892D5EDD2E7CD33EC81
:0702D30033FC5002B2D522FA
:1002DA00EC30E7100FBF000C0EBE00080DBD000485
:1002EA000BEB6014A2D5EB13FCED92E7FD2274FF31
:1002FA00FCFDFEFF22E480F8A2D574FF13FC7D808A
:03030A00E480EF9D
:03000000020A8C65
:0C0A8C00787FE4F6D8FD758151020AD392
:10030D00C2D530F707B2D563F0FF05F030E70CB278
:10031D00D5F4048463F0FF05F080018430D502F438
:02032D000422A8
:10032F00BB010689828A83E0225002E722BBFE02CC
:09033F00E32289828A83E49322FF
:10034800BB010CE58229F582E5833AF583E022506A
:1003580006E92582F8E622BBFE06E92582F8E222B4
:0D036800E58229F582E5833AF583E49322CE
:10037500BB010689828A83F0225002F722BBFE0167
:02038500F32261
:10038700EF8DF0A4A8F0CF8CF0A428CE8DF0A42E8A
:02039700FE2244
:10039900BC000BBE0029EF8DF084FFADF022E4CC48
:1003A900F875F008EF2FFFEE33FEEC33FCEE9DEC11
:1003B900984005FCEE9DFE0FD5F0E9E4CEFD22ED57
:1003C900F8F5F0EE8420D21CFEADF075F008EF2FA1
:1003D900FFED33FD4007985006D5F0F222C398FD92
:0503E9000FD5F0EA222F
:1003EE0075F008758200EF2FFFEE33FECD33CDCCC6
:1003FE0033CCC58233C5829BED9AEC99E582984049
:10040E000CF582EE9BFEED9AFDEC99FC0FD5F0D625
:10041E00E4CEFBE4CDFAE4CCF9A88222B800C1B94F
:10042E000059BA002DEC8BF084CFCECDFCE5F0CB8D
:10043E00F97818EF2FFFEE33FEED33FDEC33FCEBC6
:10044E0033FB10D703994004EB99FB0FD8E5E4F981
:10045E00FA227818EF2FFFEE33FEED33FDEC33FC6E
:10046E00C933C910D7059BE99A4007EC9BFCE99A62
:10047E00F90FD8E0E4C9FAE4CCFB2275F010EF2FA7
:10048E00FFEE33FEED33FDCC33CCC833C810D707A7
:10049E009BEC9AE899400AED9BFDEC9AFCE899F8E2
:0E04AE000FD5F0DAE4CDFBE4CCFAE4C8F92275
:0E04BC00C3E49FFFE49EFEE49DFDE49CFC2251
:100A9800020FB1E493A3F8E493A34003F68001F2B4
:100AA80008DFF48029E493A3F85407240CC8C3335F
:100AB800C4540F4420C8834004F456800146F6DF2E
:100AC800E4800B0102040810204080900EA7E47E09
:100AD800019360BCA3FF543F30E509541FFEE49323
:100AE800A360010ECF54C025E060A840B8E493A3EA
:100AF800FAE493A3F8E493A3C8C582C8CAC583CA15
:100B0800F0A3C8C582C8CAC583CADFE9DEE780BECC
:010ECC000025
:00000001FF
