:100BE80057656C636F6D6520546F20425453737959
:100BF8007374656D2143726561746420627920772E
:100C08006A63207A6B6800302D2D5354415254206A
:100C18005553494E47204254530047003A00480074
:100C2800543A00534543004E424100464942410070
:030E0C00013200B0
:100F880012000E7FE87E03120FCE120C38120D5A93
:080F980012095C1204CA80F882
:100C3800E53214600804700875340C8003753401BB
:100C4800753518C20285342FE4F527753314753AC3
:100C580001752803752A04752C05753B0B75290742
:100C6800752B08752D09F530F531752E01120FE336
:090C7800120FF7120FB8C28C2212
:10095C00120700EFB40B004003020A0090096FF875
:10096C0028287302099002099A0209A30209C702F6
:10097C0009DA0209DC0209E20209EA0209ED0209BC
:10098C00F10209F7D28CD2027F587E028006C28C0B
:10099C007F907E01020EEFC3E52E94047480948048
:1009AC004052E52F704EE53065317048C28C052EF3
:1009BC00752F05F527753518C202220532D3E5329D
:1009CC009401748094804003E4F532020C38800268
:1009DC0005300530801B74032530F5308013020B75
:1009EC001E0531800C05310531800674032531F567
:0509FC003175351822E1
:100A010012000E120DB88F398E388D378C36E4FFF7
:100A1100FEFDFCAB39AA38A937A8361201C4501E15
:100A21007B2D7D087F0212104CAF39AE38AD37AC4B
:100A31003612023D8F398E388D378C3680097B2BEB
:100A41007D087F0212104CAF39AE38AD37AC36128B
:100A5100028CAB07AA06754A027D097F02120C813E
:100A61007B2E7D0B7F0212104CE4FFFE7DC87C4281
:100A7100AB39AA38A937A83612001E12028CE47BC2
:100A810064FAF9F812042A754A017D0C7F02020CFE
:010A910081E3
:10084A00E530FD7C00E4FF120EA87F057E00120F42
:10085A00CEE531FD7C007F01120EA87F057E0012D5
:10086A000FCEE52EFD7C007F02120EA87F057E00CA
:10087A00120FCEE533FD7C007F03120EA87F057EA2
:10088A0000120FCEE52FFD7C007F04120EA87F0513
:10089A007E00120FCEE527FD3395E0FC7F05120E90
:1008AA00A87F057E00120FCEE53AFD7C007F061276
:1008BA000EA87F057E00120FCEE528FD7C007F077B
:1008CA00120EA87F057E00120FCEE52AFD7C007F5E
:1008DA0008120EA87F057E00120FCEE52CFD7C00C3
:1008EA007F09120EA87F057E00120FCEE53BFD7C24
:1008FA00007F0A120EA87F057E00120FCEE529FDA1
:10090A007C007F0B120EA87F057E00120FCEE52B0E
:10091A00FD7C007F0C120EA87F057E00120FCEE52B
:10092A002DFD7C007F0D120EA87F057E00120FCED2
:10093A00E535FD7C007F0E120EA87F057E00120FA2
:10094A00CEE532FD7C007F0F120EA87F057E0002E5
:02095A000FCEBE
:100B1E00E4FF120D2A8F307F01120D2A8F317F02D2
:100B2E00120D2A8F2E7F03120D2A8F337F04120D82
:100B3E002A8F2F7F05120D2A8F277F06120D2A8FDF
:100B4E003A7F07120D2A8F287F08120D2A8F2A7FCF
:100B5E0009120D2A8F2C7F0A120D2A8F3B7F0B1242
:100B6E000D2A8F297F0C120D2A8F2B7F0D120D2A25
:0E0B7E008F2D7F0E120D2A8F357F0F020D2A4C
:0F0CC30085434985444A85454BAB40AA41A94228
:060CD2008B468A478948A9
:100CD80012032FFFAB49AA4AA94B12032FAB46AA0E
:100CE80047A948120375AB49AA4AA94BEF020375F5
:100D5A007BFF7A0B79E87D017F01120ECC7BFF7A4B
:100D6A000C790F7D017F02120ECC7F181210387F8A
:0F0D7A00F47E01120FCE120700EF70EE020FE3AE
:1004CA00E52F75F00A842430F53CE52F75F00A848F
:1004DA00E5F02430F53DE52775F00A12030D2430C6
:1004EA00F53EE52775F00A12030DAFF0EF2430F55B
:1004FA003FE53075F064842430F521E53075F06409
:10050A0084AFF0EF75F00A842430F522EF75F00A13
:10051A0084E5F02430F523E53175F064842430F560
:10052A0024E53175F06484AFF0EF75F00A84243065
:10053A00F525EF75F00A84E5F02430F5267BFF7A7D
:10054A000C7922AD3A7F01120ECCAB21AD287F0186
:10055A0012104CAB22AD2A7F0112104CAB23AD2CEA
:10056A007F0112104C7BFF7A0C79247D067F0112E1
:10057A000ECCAB24AD297F0112104CAB25AD2B7FDD
:10058A000112104CAB26AD2D7F0112104C7BFF7A65
:10059A000C7926AD3B7F01120ECC7BFF7A0C7928B1
:1005AA007D067F02120ECC7BFF7A0C792B7D017FB0
:1005BA0002120ECCE52EFB7A00754A017D047F02F9
:1005CA00120C81E535FB7A00754A027D0E7F021214
:1005DA000C81E52F75F00A84FD7F04121060E52F67
:1005EA0075F00A84ADF07F05121060E52775F00AF0
:1005FA0012030DFD7F06121060E52775F00A12033B
:10060A000DADF07F07121060300005120A01B2002A
:10061A0030010512084AB201E53270087BFF7A0CF4
:10062A00792F800CE5326401700D7BFF7A0C7933E7
:10063A007D0D7F01120ECCD3E53594007480948031
:10064A00501130020EC28C753518C2027F647E00CA
:10065A00120EEFAF27EF3395E0C364809480400316
:10066A000206FFE52F60030206FAC3E52E9404741E
:10067A00809480500B052E85342F7F967E0080044F
:10068A007FBC7E02120EEFE4F527C28C753518C2C4
:07069A0002E52E6403705E0F
:1006A100F54075410075423AF54375440075453B87
:1006B100120CC375400075410075422875430075E1
:1006C1004400754529120CC37540007541007542FF
:1006D1002A75430075440075452B120CC375400003
:1006E10075410075422C75430075440075452D1206
:0906F1000CC37F2C7E01020EEF08
:0606FA0075273B152F22BD
:05107200007FF7DFFE26
:011077002256
:040EEF00AD07AC0699
:100EF300E4FBFAED25E0FFEC33FEC3EB9FEA9E50E3
:0D0F03000CB2A01210720BBB00010A80E6B8
:010F100022BE
:0D000E00120F6E7FCC120F117F44020F11F4
:100DB800120F6E7FCC120F117FBE120F11120E820E
:100DC8008F46120E82EFFEE546FFFDAC06EC1202DE
:0B0DD80053E4FBFA7980784102012708
:06101D00C2A58F80D2A7DE
:081023007F027EEFDEFEDFFC20
:01102B0022A2
:0A103800C2A612101DC2A702102369
:0A104200D2A612101DC2A70210234F
:100F3300AE07EEFB7A0064017004ED148009EB64E4
:0E0F4300024A7009ED243F4480FF121038224C
:100FE3007F381210387F0C1210387F061210387FAA
:040FF30001021038AF
:0A104C00AC03120F33AF0402104290
:060ECC008B468A478948AD
:100ED200120F33E4FDAB46AA47A9488D8275830001
:0C0EE200120348FF60061210420D80E968
:010EEE0022E1
:080E34008E4B8F4C8C4D8D4E4E
:100E3C007F017E00E4FBEBC3954EE54D6480F874B6
:0E0E4C008098500AAC4BAD4C1203870B80E827
:010E5A002275
:040C81008A488B49C9
:100C8500120F33AA4AEAFF7E00D394007480948041
:100C9500402BEF24FFFDEE34FFFC7F0A120E34AC2F
:100CA50048AD49CFCDCFCECCCE1203997C007D0A7D
:0D0CB500120399ED2430FF1210421A80C87E
:010CC200220F
:100700007540FFD2B0D2B1D2B2D2B4D2B5D2B6D245
:10071000B7C2B220B7147F147E00120FCE30B7FDDF
:100720007F147E00120FCE75400B20B6147F147E0E
:1007300000120FCE30B6FD7F147E00120FCE754032
:100740000A20B5147F147E00120FCE30B5FD7F1441
:100750007E00120FCE75400920B4147F147E001263
:100760000FCE30B4FD7F147E00120FCE754008D23C
:10077000B0D2B1D2B2D2B4D2B5D2B6D2B7C2B12011
:10078000B7147F147E00120FCE30B7FD7F147E00A9
:10079000120FCE75400720B6147F147E00120FCEC4
:1007A00030B6FD7F147E00120FCE75400620B514C2
:1007B0007F147E00120FCE30B5FD7F147E00120F25
:1007C000CE75400520B4147F147E00120FCE30B4D5
:1007D000FD7F147E00120FCE754004D2B0D2B1D28C
:1007E000B2D2B4D2B5D2B6D2B7C2B020B7147F1449
:1007F0007E00120FCE30B7FD7F147E00120FCE7533
:10080000400320B6147F147E00120FCE30B6FD7F59
:10081000147E00120FCE75400220B5147F147E00A6
:10082000120FCE30B5FD7F147E00120FCE75400141
:1008300020B4147F147E00120FCE30B4FD7F147EDE
:0908400000120FCEE4F540AF40B8
:01084900228C
:100F6E00D2A1C2A17FF7DFFED2A17F20DFFEA2A118
:090F7E00E433FE7FF7DFFEAF064D
:010F87002247
:10100B00C2A17E04DEFEEF24FF92A17E18DEFED28B
:01101B00A133
:01101C0022B1
:100FA000C2A17F02DFFED2A17F02DFFEA2A1E43355
:070FB000FE7F18DFFEAF0613
:010FB7002217
:020F1100AD072A
:100F1300E4FCECC39408748094805013A804740117
:0F0F2300088002C333D8FC5DFF12100B0C80E373
:010F3200229C
:100E8200E4FDFCECC39408748094805016120FA009
:100E9200EF600DA8047401088002C333D8FC420538
:050EA2000C80E0AF052B
:010EA7002228
:100E0F0009150A0A0A0A0A0A0A0A0A0C093F065BA6
:0C0E1F004F666D7D077F6F0040010801E9
:09106000AE0574152FF8A6062256
:100D8900E4F590EF24FC601B1460121460091470E0
:100D990016D2B3D2A48010C2B3D2A4800AD2B3C2ED
:0F0DA900A48004C2B3C2A474092DF8E6F5902209
:100F510074152508F8E6FDAF08120D890508C3E5EB
:0C0F610008940974809480400375080116
:010F6D002261
:080E2B00021E05DCC180C101BB
:100FF700438901758C3C758AB0C28DC28CD2A9D247
:04100700AFC2B92299
:100FB800438910758DFC758B18C28FC28ED2ABD247
:060FC800AFD2BBD28E2265
:03000B00020DE300
:100DE300C0E0C0D075D000C007AF331533EF700C2F
:100DF30075331415273002021535B201758C3C7515
:090E03008AB0D007D0D0D0E03253
:03001B00020B8C49
:100B8C00C0E0C0F0C083C082C0D075D000C000C02F
:100B9C0001C002C003C004C005C006C007120F513B
:100BAC00E51F151F7002151ED3E51F9400E51E945A
:100BBC00005008751E05751FDCB200758DFC758B19
:100BCC0018D007D006D005D004D003D002D001D065
:0C0BDC0000D0D0D082D083D0F0D0E03226
:100EA8008F468C478D481210697FA0120CF81210DB
:100EB8002CAF46120CF812102CAF48120CF8121076
:040EC8002C020003F5
:020D2A008F40F8
:100D2C001210697FA0120CF812102CAF40120CF8A4
:100D3C0012102C1210697FA1120CF812102C120E2A
:0D0D4C005B8F417F01121056120003AF4172
:010D59002277
:09106900D2A3D2A2C2A3C2A222AA
:07000300C2A3D2A2D2A32286
:020CF800AD0746
:100CFA00E4FBEBC394087480948050237E007480D4
:100D0A00A803088006CEA2E713CE13D8F8FFEDF5A4
:0F0D1A0082EF558224FF92A3D2A2C2A20B80D3F4
:010D290022A7
:100E5B00E4FFD2A3FEEEC39408748094805017D2A3
:100E6B00A230A30DA8067480088002C313D8FC42DD
:060E7B0007C2A20E80DF99
:010E8100224E
:0A105600EF24FF92A3D2A2C2A2224F
:0B102C00D2A3D2A2A2A3E433FFC2A211
:011037002296
:100FCE00EF1FAC0670011E4C600A7D027CEFDCFE4A
:040FDE00DDFC80ECCA
:010FE20022EC
:10001E00EC4D6011E8497017ED33EC3304600DE4DC
:10002E00FCFFFEFD22E933E8330470F80202F812F9
:10003E0002C358046009E4CC2481500628500902FA
:10004E0003022840030202FFC0E0EB4A7044B9806D
:10005E0006D0E0FB0202EEEF4E701CBD8008EBFFF7
:10006E00EAFEE9FD80EBE98DF0A4FEE5F002010762
:10007E00E9CDF9EAFEEBFFEF89F0A4FCE5F0CE89BD
:10008E00F0A42EFFE435F0CD89F0A42DFEE435F07A
:10009E008067EF4E7005BD80D780C3EF8BF0A4ACA8
:1000AE00F0EE8BF0A42CFCE435F0F8EF8AF0A42CE3
:1000BE00E5F038FCE433CB8DF0A42CFCE5F03BF8F6
:1000CE00EE8AF0A42CFCE5F038F8E433CF89F0A4E6
:1000DE002CFCE5F038CF3400CE89F0A42FFFE5F0EC
:1000EE003EFEE433C98DF0A42EFEE5F039CD8AF044
:1000FE00A42FFFE5F03EFEE43DFD33D0E0FB5007BC
:10010E000BBB000F020302EC2CFCEF33FFEE33FEB1
:06011E00ED33FD0202DAE0
:10012400020302EC5D046005E8590470030202F85E
:100134001202C3580460F6EC4860F2EC7004FDFE51
:10014400FF22C860DB2481C85009C39860025006AE
:100154000202FF9850CAF582E9294B4A7005AB8226
:100164000202EE75F0007C1A7880C3EF9BEE9AEDE4
:1001740099400DC3EF9BFFEE9AFEED99FDE842F026
:10018400DC23ACF0D0E0FFD0E0FED0E0FDAB822079
:10019400E7101BEB60BAEC2CFCEF33FFEE33FEED03
:1001A40033FD0202DAE803F830E705C0F075F00029
:1001B400EF2FFFEE33FEED33FD40B830E7C280AAE7
:1001C40074F8CC6480CCC86480C8F58204604FC3E2
:1001D400EB9FF5F0EA9E42F0E99D42F0E89C45F081
:1001E400603C501DE5825FFFE582D313CB5BCBF40B
:1001F4002B5582FB50280ABA002409B90020088034
:100204001DE5825BFBE582D313CF5FCFF4C3132FCD
:100214005582FF50090EBE00050DBD00010CC3EB55
:100224009FF5F0EA9E42F0E99D42F0E89C45F060BB
:0902340007CC4820E701B3EC22DD
:10023D00ED33EC33600A047003BD8004ECB2E7FCCF
:01024D00228E
:10024E0075F020800E75F010800575F0087D007E2B
:10025E00007F003392D530D5031204BCEC3340102E
:10026E00EF33FFEE33FEED33FDEC33FCD5F0ED2234
:0E027E00E5F0247EA2D513CC92E7CDCEFF2270
:10028C00EDD2E7CD33EC3392D524814006E4FFFE6A
:10029C00FDFC22FCE4CFCECDCC24E0501174FF80C9
:1002AC00EDC3CC13CCCD13CDCE13CECF13CF047066
:0702BC00F030D5DE0204BCA6
:1002C300E9D2E7C933E833F892D5EDD2E7CD33EC81
:0702D30033FC5002B2D522FA
:1002DA00EC30E7100FBF000C0EBE00080DBD000485
:1002EA000BEB6014A2D5EB13FCED92E7FD2274FF31
:1002FA00FCFDFEFF22E480F8A2D574FF13FC7D808A
:03030A00E480EF9D
:03000000020A925F
:0C0A9200787FE4F6D8FD75814E020AD989
:10030D00C2D530F707B2D563F0FF05F030E70CB278
:10031D00D5F4048463F0FF05F080018430D502F438
:02032D000422A8
:10032F00BB010689828A83E0225002E722BBFE02CC
:09033F00E32289828A83E49322FF
:10034800BB010CE58229F582E5833AF583E022506A
:1003580006E92582F8E622BBFE06E92582F8E222B4
:0D036800E58229F582E5833AF583E49322CE
:10037500BB010689828A83F0225002F722BBFE0167
:02038500F32261
:10038700EF8DF0A4A8F0CF8CF0A428CE8DF0A42E8A
:02039700FE2244
:10039900BC000BBE0029EF8DF084FFADF022E4CC48
:1003A900F875F008EF2FFFEE33FEEC33FCEE9DEC11
:1003B900984005FCEE9DFE0FD5F0E9E4CEFD22ED57
:1003C900F8F5F0EE8420D21CFEADF075F008EF2FA1
:1003D900FFED33FD4007985006D5F0F222C398FD92
:0503E9000FD5F0EA222F
:1003EE0075F008758200EF2FFFEE33FECD33CDCCC6
:1003FE0033CCC58233C5829BED9AEC99E582984049
:10040E000CF582EE9BFEED9AFDEC99FC0FD5F0D625
:10041E00E4CEFBE4CDFAE4CCF9A88222B800C1B94F
:10042E000059BA002DEC8BF084CFCECDFCE5F0CB8D
:10043E00F97818EF2FFFEE33FEED33FDEC33FCEBC6
:10044E0033FB10D703994004EB99FB0FD8E5E4F981
:10045E00FA227818EF2FFFEE33FEED33FDEC33FC6E
:10046E00C933C910D7059BE99A4007EC9BFCE99A62
:10047E00F90FD8E0E4C9FAE4CCFB2275F010EF2FA7
:10048E00FFEE33FEED33FDCC33CCC833C810D707A7
:10049E009BEC9AE899400AED9BFDEC9AFCE899F8E2
:0E04AE000FD5F0DAE4CDFBE4CCFAE4C8F92275
:0E04BC00C3E49FFFE49EFEE49DFDE49CFC2251
:100A9E00020F88E493A3F8E493A34003F68001F2D7
:100AAE0008DFF48029E493A3F85407240CC8C33359
:100ABE00C4540F4420C8834004F456800146F6DF28
:100ACE00E4800B0102040810204080900E0CE47E9E
:100ADE00019360BCA3FF543F30E509541FFEE4931D
:100AEE00A360010ECF54C025E060A840B8E493A3E4
:100AFE00FAE493A3F8E493A3C8C582C8CAC583CA0F
:100B0E00F0A3C8C582C8CAC583CADFE9DEE780BEC6
:010E330000BE
:00000001FF
